{
  "_format": "hh-sol-artifact-1",
  "contractName": "ProductAuth",
  "sourceName": "contracts/ProductAuth.sol",
  "abi": [
    {
      "inputs": [
        {
          "internalType": "uint256",
          "name": "productId",
          "type": "uint256"
        }
      ],
      "name": "addProduct",
      "outputs": [],
      "stateMutability": "nonpayable",
      "type": "function"
    },
    {
      "inputs": [
        {
          "internalType": "uint256",
          "name": "productId",
          "type": "uint256"
        }
      ],
      "name": "getProductStatus",
      "outputs": [
        {
          "internalType": "enum ProductAuth.Status",
          "name": "",
          "type": "uint8"
        }
      ],
      "stateMutability": "view",
      "type": "function"
    },
    {
      "inputs": [
        {
          "internalType": "uint256",
          "name": "productId",
          "type": "uint256"
        }
      ],
      "name": "markFake",
      "outputs": [],
      "stateMutability": "nonpayable",
      "type": "function"
    },
    {
      "inputs": [
        {
          "internalType": "uint256",
          "name": "",
          "type": "uint256"
        }
      ],
      "name": "productStatus",
      "outputs": [
        {
          "internalType": "enum ProductAuth.Status",
          "name": "",
          "type": "uint8"
        }
      ],
      "stateMutability": "view",
      "type": "function"
    },
    {
      "inputs": [
        {
          "internalType": "uint256",
          "name": "productId",
          "type": "uint256"
        }
      ],
      "name": "verifyProduct",
      "outputs": [],
      "stateMutability": "nonpayable",
      "type": "function"
    }
  ],
  "bytecode": "0x608060405234801561001057600080fd5b5061069e806100206000396000f3fe608060405234801561001057600080fd5b50600436106100575760003560e01c80630ea3d3ee1461005c57806313f6b1bb1461008c578063327a48cc146100bc578063524e8462146100d8578063d529414d146100f4575b600080fd5b6100766004803603810190610071919061042e565b610110565b60405161008391906104d2565b60405180910390f35b6100a660048036038101906100a1919061042e565b610130565b6040516100b391906104d2565b60405180910390f35b6100d660048036038101906100d1919061042e565b610159565b005b6100f260048036038101906100ed919061042e565b61021d565b005b61010e6004803603810190610109919061042e565b6102e1565b005b60006020528060005260406000206000915054906101000a900460ff1681565b600080600083815260200190815260200160002060009054906101000a900460ff169050919050565b6000600381111561016d5761016c61045b565b5b60008083815260200190815260200160002060009054906101000a900460ff16600381111561019f5761019e61045b565b5b146101df576040517f08c379a00000000000000000000000000000000000000000000000000000000081526004016101d69061054a565b60405180910390fd5b600160008083815260200190815260200160002060006101000a81548160ff021916908360038111156102155761021461045b565b5b021790555050565b600160038111156102315761023061045b565b5b60008083815260200190815260200160002060009054906101000a900460ff1660038111156102635761026261045b565b5b146102a3576040517f08c379a000000000000000000000000000000000000000000000000000000000815260040161029a906105b6565b60405180910390fd5b600260008083815260200190815260200160002060006101000a81548160ff021916908360038111156102d9576102d861045b565b5b021790555050565b600160038111156102f5576102f461045b565b5b60008083815260200190815260200160002060009054906101000a900460ff1660038111156103275761032661045b565b5b14806103765750600260038111156103425761034161045b565b5b60008083815260200190815260200160002060009054906101000a900460ff1660038111156103745761037361045b565b5b145b6103b5576040517f08c379a00000000000000000000000000000000000000000000000000000000081526004016103ac90610648565b60405180910390fd5b600360008083815260200190815260200160002060006101000a81548160ff021916908360038111156103eb576103ea61045b565b5b021790555050565b600080fd5b6000819050919050565b61040b816103f8565b811461041657600080fd5b50565b60008135905061042881610402565b92915050565b600060208284031215610444576104436103f3565b5b600061045284828501610419565b91505092915050565b7f4e487b7100000000000000000000000000000000000000000000000000000000600052602160045260246000fd5b6004811061049b5761049a61045b565b5b50565b60008190506104ac8261048a565b919050565b60006104bc8261049e565b9050919050565b6104cc816104b1565b82525050565b60006020820190506104e760008301846104c3565b92915050565b600082825260208201905092915050565b7f50726f6475637420616c72656164792065786973747300000000000000000000600082015250565b60006105346016836104ed565b915061053f826104fe565b602082019050919050565b6000602082019050818103600083015261056381610527565b9050919050565b7f50726f64756374206e6f7420696e206120737461746520746f20766572696679600082015250565b60006105a06020836104ed565b91506105ab8261056a565b602082019050919050565b600060208201905081810360008301526105cf81610593565b9050919050565b7f50726f64756374206e6f7420696e206120737461746520746f206d61726b206660008201527f616b650000000000000000000000000000000000000000000000000000000000602082015250565b60006106326023836104ed565b915061063d826105d6565b604082019050919050565b6000602082019050818103600083015261066181610625565b905091905056fea2646970667358221220893c0c8af083e13a9d81796c2a58f41aed775ecbf5f7fdf4ebf3c0eddc9a60f364736f6c63430008120033",
  "linkReferences": {},
  "deployedLinkReferences": {}
}