{
    "_format": "hh-sol-artifact-1",
    "contractName": "ProductAuth",
    "sourceName": "contracts/ProductAuth.sol",
    "abi": [
        {
            "inputs": [
                {
                    "internalType": "uint256",
                    "name": "productId",
                    "type": "uint256"
                }
            ],
            "name": "addProduct",
            "outputs": [],
            "stateMutability": "nonpayable",
            "type": "function"
        },
        {
            "inputs": [
                {
                    "internalType": "uint256",
                    "name": "productId",
                    "type": "uint256"
                }
            ],
            "name": "getProductStatus",
            "outputs": [
                {
                    "internalType": "enum ProductAuth.Status",
                    "name": "",
                    "type": "uint8"
                }
            ],
            "stateMutability": "view",
            "type": "function"
        },
        {
            "inputs": [
                {
                    "internalType": "uint256",
                    "name": "productId",
                    "type": "uint256"
                }
            ],
            "name": "markFake",
            "outputs": [],
            "stateMutability": "nonpayable",
            "type": "function"
        },
        {
            "inputs": [
                {
                    "internalType": "uint256",
                    "name": "",
                    "type": "uint256"
                }
            ],
            "name": "productStatus",
            "outputs": [
                {
                    "internalType": "enum ProductAuth.Status",
                    "name": "",
                    "type": "uint8"
                }
            ],
            "stateMutability": "view",
            "type": "function"
        },
        {
            "inputs": [
                {
                    "internalType": "uint256",
                    "name": "productId",
                    "type": "uint256"
                }
            ],
            "name": "verifyProduct",
            "outputs": [],
            "stateMutability": "nonpayable",
            "type": "function"
        }
    ],
    "bytecode": "0x608060405234801561001057600080fd5b50610813806100206000396000f3fe608060405234801561001057600080fd5b50600436106100575760003560e01c80630ea3d3ee1461005c57806313f6b1bb1461008c578063327a48cc146100bc578063524e8462146100d8578063d529414d146100f4575b600080fd5b610076600480360381019061007191906105aa565b610110565b60405161008391906106c8565b60405180910390f35b6100a660048036038101906100a191906105aa565b610130565b6040516100b391906106c8565b60405180910390f35b6100d660048036038101906100d191906105aa565b610159565b005b6100f260048036038101906100ed91906105aa565b61028f565b005b61010e600480360381019061010991906105aa565b6103c5565b005b60006020528060005260406000206000915054906101000a900460ff1681565b600080600083815260200190815260200160002060009054906101000a900460ff169050919050565b60006003811115610193577f4e487b7100000000000000000000000000000000000000000000000000000000600052602160045260246000fd5b60008083815260200190815260200160002060009054906101000a900460ff1660038111156101eb577f4e487b7100000000000000000000000000000000000000000000000000000000600052602160045260246000fd5b1461022b576040517f08c379a000000000000000000000000000000000000000000000000000000000815260040161022290610703565b60405180910390fd5b600160008083815260200190815260200160002060006101000a81548160ff02191690836003811115610287577f4e487b7100000000000000000000000000000000000000000000000000000000600052602160045260246000fd5b021790555050565b600160038111156102c9577f4e487b7100000000000000000000000000000000000000000000000000000000600052602160045260246000fd5b60008083815260200190815260200160002060009054906101000a900460ff166003811115610321577f4e487b7100000000000000000000000000000000000000000000000000000000600052602160045260246000fd5b14610361576040517f08c379a0000000000000000000000000000000000000000000000000000000008152600401610358906106e3565b60405180910390fd5b600260008083815260200190815260200160002060006101000a81548160ff021916908360038111156103bd577f4e487b7100000000000000000000000000000000000000000000000000000000600052602160045260246000fd5b021790555050565b600160038111156103ff577f4e487b7100000000000000000000000000000000000000000000000000000000600052602160045260246000fd5b60008083815260200190815260200160002060009054906101000a900460ff166003811115610457577f4e487b7100000000000000000000000000000000000000000000000000000000600052602160045260246000fd5b14806104f2575060026003811115610498577f4e487b7100000000000000000000000000000000000000000000000000000000600052602160045260246000fd5b60008083815260200190815260200160002060009054906101000a900460ff1660038111156104f0577f4e487b7100000000000000000000000000000000000000000000000000000000600052602160045260246000fd5b145b610531576040517f08c379a000000000000000000000000000000000000000000000000000000000815260040161052890610723565b60405180910390fd5b600360008083815260200190815260200160002060006101000a81548160ff0219169083600381111561058d577f4e487b7100000000000000000000000000000000000000000000000000000000600052602160045260246000fd5b021790555050565b6000813590506105a4816107c6565b92915050565b6000602082840312156105bc57600080fd5b60006105ca84828501610595565b91505092915050565b6105dc81610771565b82525050565b60006105ef602083610743565b91507f50726f64756374206e6f7420696e206120737461746520746f207665726966796000830152602082019050919050565b600061062f601683610743565b91507f50726f6475637420616c726561647920657869737473000000000000000000006000830152602082019050919050565b600061066f602383610743565b91507f50726f64756374206e6f7420696e206120737461746520746f206d61726b206660008301527f616b6500000000000000000000000000000000000000000000000000000000006020830152604082019050919050565b60006020820190506106dd60008301846105d3565b92915050565b600060208201905081810360008301526106fc816105e2565b9050919050565b6000602082019050818103600083015261071c81610622565b9050919050565b6000602082019050818103600083015261073c81610662565b9050919050565b600082825260208201905092915050565b6000819050610762826107b2565b919050565b6000819050919050565b600061077c82610754565b9050919050565b7f4e487b7100000000000000000000000000000000000000000000000000000000600052602160045260246000fd5b600481106107c3576107c2610783565b5b50565b6107cf81610767565b81146107da57600080fd5b5056fea2646970667358221220fe6fe9bbf7c00d1a0db454409a2eb4eda479144be201553fc13ed4a709965d9864736f6c63430008000033",
    "linkReferences": {},
    "deployedLinkReferences": {}
}